:020000040800F2
:10000000A041002045010008290D0008AD0A0008A4
:10001000250D000891090008A11A00080000000041
:10002000000000000000000000000000F50E0008C5
:1000300095090008000000009D0D0008F90E000859
:100040005F0100085F0100085F0100085F01000810
:100050005F0100085F0100085F0100085F01000800
:100060005F0100085F0100085F0100085F010008F0
:100070005F0100085F0100085F0100085F010008E0
:100080005F0100085F0100085F0100085F010008D0
:100090005F0100085F0100085F0100085F010008C0
:1000A0005F0100085F0100085F0100085F010008B0
:1000B000451000085F0100085F0100085F010008AB
:1000C0005F0100085F0100085F0100085F01000890
:1000D0005F010008BD14000801170008E5170008BB
:1000E0005F0100085F0100085F0100085F01000870
:1000F0005F0100085F0100085F0100085F01000860
:100100005F0100085F0100085F0100085F0100084F
:1001100009130008ED1300085F0100085F010008E3
:100120005F0100085F0100085F0100085F0100082F
:10013000DFF80CD000F0D6FB0048004789320008F9
:10014000A04100200648804706480047FEE7FEE73A
:10015000FEE7FEE7FEE7FEE7FEE7FEE7FEE7FEE777
:10016000110F00083101000840EA01039B0703D08A
:1001700009E008C9121F08C0042AFAD203E011F8E6
:10018000013B00F8013B521EF9D27047D2B201E0A8
:1001900000F8012B491EFBD270470022F6E710B58C
:1001A00013460A4604461946FFF7F0FF204610BDE5
:1001B000F0B480EA0102D40F4200B2EB410F02D248
:1001C0000246084611464A0042D0C30DDDB2C1F3D3
:1001D000C752AD1A202D35DAC1F3160141F40002E1
:1001E00004B15242C5F1200602FA06F12A41104438
:1001F000B3EBD05F23D0C4B1012DA0EBC35009DC19
:10020000F0BC4FF0004202EAC352DBB200F500003E
:1002100000F03BBA400000F1807000EBC350A0F149
:10022000807040EAD170490009E0490841EAC07194
:10023000A0EBC35000F50000400800EBC350F0BC39
:1002400000F01ABA6142012202EB4101001BF6E7FD
:10025000F0BC704781F00041AAE780F00040A7E7BA
:1002600080EA010210B502F00043400022D04A00AB
:100270001FD0010E01EB1261C0F35600C2F356020B
:1002800040F4000042F40002A0FB022000047F3989
:10029000140400D0401C50EA124001D44000491E12
:1002A000C2B20C0604EBD010401C4008802A02D0D9
:1002B00003E0002010BD20F00100002900DA00203A
:1002C000184310BD2DE9FE4F804681EA0300C00FA0
:1002D0000C46009021F0004123F00045B8EB0200ED
:1002E000A94105D24046214690461C460B4602468F
:1002F00023F00040104347D0270DC7F30A00C3F393
:100300000A510290401A019040286BDAC3F313009F
:1003100040F4801B0098924620B10023D2EB030AE0
:1003200063EB0B0B01985946C0F14002504600F0B8
:1003300082F906460D4650465946019A00F08AF960
:1003400010EB08006141002487EA115284EAE77348
:100350001A4340D0009A62B3019A012A4FEA075229
:1003600015DC001B61EB02014FF0004202EA07526C
:10037000CDE90042001C41F5801132462B4600F0C9
:10038000C1F903B0BDE8F08F40462146F9E7001BF4
:1003900061EB0201001C41F5801300185B4120183D
:1003A000A2F5001747EB030140EAD570B6196D417D
:1003B00011E06D084FEA360645EAC0754FEA07526C
:1003C000001B61EB0201001C41F5801149084FEA56
:1003D00030000019514132462B4603B0BDE8F04FC2
:1003E00000F081B90098012240000023D0EB020206
:1003F00063EBE073009821464FEAE074B8EB00002D
:1004000061EB0401E9E783F000435BE781F0004121
:1004100058E72DE9F04D81EA030404F0004B21F088
:10042000004514464FF0000A23F0004150EA05024F
:1004300020D054EA01021DD0C5F30A570246C5F385
:100440001303C1F31300C1F30A5640F4801543F4BB
:100450008013A7EB0608101BD64608F2FD3873EB95
:10046000050002D308F1010801E092185B41B8F1E0
:10047000000F03DA00200146BDE8F08D00204FF4A4
:100480008011064684460EE0171B73EB050705D363
:10049000121B63EB050306434CEA010C49084FEAC3
:1004A000300092185B4150EA0107EDD152EA030097
:1004B00012D082EA040083EA0501084305D0101B2C
:1004C000AB4106D20122002306E000224FF0004398
:1004D00002E06FF0010253101AEB06004CEB0851DA
:1004E00010EB0A0041EB0B01BDE8F04D00F0FBB84A
:1004F00096230022114600F0C8B820F00040C10D3C
:10050000C0F3160040F400007F2901DA0020704794
:10051000962903DCC1F19601C8407047963988409E
:10052000704700F0004230F000400AD0C10D01F5E4
:100530006071C0F3160042EA0151C208400711433E
:10054000704700200146704701F0004330B421F0AD
:10055000004150EA010206D00A0DA2F56072C1F313
:100560001301002A02DC30BC00207047440F44EA2B
:10057000C104C100E01830BC00EBC25000F07CB8F0
:10058000002801DBC0F10040002901DBC1F100417E
:1005900081427047002801DBC0F10040002901DBE7
:1005A000C1F100418842704730B50B46014600203A
:1005B0002022012409E021FA02F59D4205D303FA25
:1005C00002F5491B04FA02F52844151EA2F10102A6
:1005D000F1DC30BD2DE9F05F0546002092469B46D8
:1005E00088460646814640241BE028464146474649
:1005F000224600F089F953465A46C01A914110D359
:1006000011461846224600F016F82D1A67EB01082D
:100610004F4622460120002100F00DF817EB00099B
:100620004E41201EA4F10104DFDC484631462A4633
:100630004346BDE8F09F202A04DB203A00FA02F18D
:10064000002070479140C2F1200320FA03F31943C0
:1006500090407047202A06DBCB17203A41FA02F07F
:1006600043EAE07306E041FA02F3D040C2F120020F
:1006700091400843194670470029A8BF7047401CA5
:10068000490008BF20F00100704710B4B0FA80FCA8
:1006900000FA0CF050EA010404BF10BC704749B1E5
:1006A000CCF1200421FA04F411FA0CF118BF012155
:1006B00021430843A3EB0C01CB1D4FEA00614FEA35
:1006C000102042BF002010BC704700EBC350104404
:1006D0000029A4BF10BC7047401C490008BF20F08F
:1006E000010010BC704710B5141E73F1000408DA45
:1006F000401C41F1000192185B411A4301D120F0E6
:10070000010010BD2DE9F04D92469B4611B1B1FAA2
:1007100081F202E0B0FA80F220329046FFF78BFFC0
:1007200004460F4640EA0A0041EA0B0153465A4686
:10073000084313D0114653EA010019D0C8F1400212
:10074000504600F0E1F805460E46504659464246EE
:10075000FFF771FF084305D0012004E02046394629
:10076000BDE8F08D0020054346EAE0762C43374390
:100770000A986305E40AA0EB08000022FD0A44EA97
:1007800047540A3002D500200146E9E70105101957
:100790006941DDE9084500196941BDE8F04DA2E76E
:1007A0002DE9FE4F81EA030404F0004421F00041EA
:1007B00000944FF0000B23F0004350EA01045ED098
:1007C00052EA03045BD0C3F30A54C1F30A552C4424
:1007D000A4F2F3340194A0FB0254C1F3130141F4D9
:1007E0008011C3F3130343F4801301FB024400FBA5
:1007F000034E840A970A44EA815447EA8357A4FBCC
:10080000076802958D0A05FB07854FEA932C04FBC8
:100810000C542705029D4FEA065847EA1637B5EBF8
:1008200008056EEB070C870E920E47EA811742EA25
:100830008312A7FB0201B6EB0B0164EB00042B0D46
:1008400043EA0C335E1844EB1C50DA465146E7FB92
:100850000201C5F313044FEA0B3343EA14534FEA82
:100860000432019C43EA0603A4F10C040294009CA8
:10087000CDE900B4FFF746FF03B0BDE8F08F0020DC
:100880000146F9E7C1F30A52C1F3130140F2FF3305
:1008900041F480119A4202DA00200146704740F28A
:1008A00033439A42A2F2334202DC524200F02CB8A7
:1008B000FFF7C1BE30B5041E71F1000404DB4FF038
:1008C0000044404264EB0101141E73F1000405DB97
:1008D0001C464FF00043524263EB0403994208BFA9
:1008E000904230BD064C074D06E0E06840F0010341
:1008F00094E8070098471034AC42F6D3FFF71CFC8D
:100900001083000830830008202A04DB203A21FAF3
:1009100002F00021704721FA02F3D040C2F1200218
:1009200091400843194670472DE9F047044689462F
:100930004946204601F03CFF1149087008460078FE
:10094000632802D10020BDE8F0874946204601F027
:10095000AFFE03210A48007802F01AFA094908801C
:1009600008460088FFF7C4FD8246FFF7DAFD074618
:10097000054A064BFFF74DFD0546FFF7E5FDE2E7AB
:1009800034000020360000209A9999999963934089
:1009900000BFFEE770472DE9F04102460025002622
:1009A000002000230024002791F803C00CF00F055D
:1009B00091F803C00CF0100CBCF1000F03D091F8BB
:1009C00002C04CEA050591F800C0BCF1000F31D01F
:1009D000146800202BE04FF0010C0CFA00F3B1F882
:1009E00000C00CEA03069E4220D183004FF00F0C9A
:1009F0000CFA03F7BC4305FA03FC4CEA040491F833
:100A000003C0BCF1280F06D14FF0010C0CFA00FC1A
:100A1000C2F814C00AE091F803C0BCF1480F05D138
:100A20004FF0010C0CFA00FCC2F810C0401C082862
:100A3000D1D31460B1F800C0BCF1FF0F34DD5468AD
:100A400000202EE000F1080C4FF0010808FA0CF32A
:100A5000B1F800C00CEA03069E4221D183004FF09A
:100A60000F0C0CFA03F7BC4305FA03FC4CEA040430
:100A700091F803C0BCF1280F05D100F1080C08FA69
:100A80000CF8C2F8148091F803C0BCF1480F07D1EC
:100A900000F1080C4FF0010808FA0CF8C2F81080B9
:100AA000401C0828CED35460BDE8F08100BFFEE7AB
:100AB00070B5044600250CB1032C07D10020144961
:100AC0008871F02048804FF4A0708880052C01D0F8
:100AD000062C07D101200E4988714FF4A070488080
:100AE000F020888004B900BF032C01D145F0C00577
:100AF000052C01D145F06005062C01D145F0A0057B
:100B0000362002F0CFFD45F0080002F071FD70BD07
:100B10006800002070B505460E46144601231A46AB
:100B20003146284602F004FD204602F061FD70BD0A
:100B30002DE9F04706460F4614461D46DDF8208095
:100B400004FB05F92B4622463946304602F0F0FCFC
:100B500002E0404602F04CFDB9F10000A9F10109A4
:100B6000F7D1BDE8F08710B502F05EF902F0CAF8DF
:100B700002F02CFA10BD2DE9FF4F85B081468A4660
:100B80004FF0000B002001900798A0EB0905089892
:100B9000A0EB0A06CDF80C90CDF808A0002D01DDE1
:100BA000012705E00DB9002702E04FF0FF376D4245
:100BB000002E02DD4FF0010806E016B94FF00008E4
:100BC00002E04FF0FF387642B54201DD2C4600E0EE
:100BD0003446002004901EE0129ADDE90210FFF76F
:100BE00099FFAB44019830440190A34505DDABEB80
:100BF000040B0398384480B203900198A04206DDAC
:100C00000198001B01900298404480B20290049821
:100C1000401C80B20490611C04988842DCDD09B05D
:100C2000BDE8F08F2DE9FC4706460F4615461C46E9
:100C3000DDE90A892048007808B9BDE8FC87B2469A
:100C40000C2C06D0102C04D0182C02D0202C00D054
:100C500018242BE018484088001BB04202DA5646A0
:100C6000381987B214488088001BB84200DAE4E7DC
:100C700028787F280FDACDE900892A78234639467B
:100C8000304601F01FFF6D1C204604EBD07106EBCF
:100C900061018EB20AE023462A4639463046CDE944
:100CA000008901F09FFFAD1C301986B2287800281A
:100CB000D0D100BFC1E70000680000202DE9F0415D
:100CC000044614492046FFF7C8FA07461249FFF7C1
:100CD000C7FA06461149FFF76BFA05460021284678
:100CE000FFF74EFC01D2002007E00D492846FFF730
:100CF00051FC01D20A4800E0284605464FF07C51DD
:100D00002846FFF755FA0646FFF7F7FBC0B2BDE8E5
:100D1000F08100000000A0400000C04100008C42B3
:100D200000006F4300BFFEE77047000070B5002170
:100D300000230F22C47804B3154C246804F4E06443
:100D4000C4F5E064210AC1F10403CA40447804FAFE
:100D500003F184781440214309010E4C0678A15513
:100D6000047804F01F050124AC4005786D11AD0036
:100D700005F1E025C5F8004109E0047804F01F05FD
:100D80000124AC40044D0678761145F8264070BD2C
:100D90000CED00E000E400E080E100E070470000BE
:100DA00029B1064AD2690243044BDA6104E0034ADE
:100DB000D2698243014BDA617047000000100240A3
:100DC00029B1064A12690243044B1A6104E0034A3E
:100DD00012698243014B1A61704700000010024003
:100DE00029B1064A92690243044B9A6104E0034A1E
:100DF00092698243014B9A617047000000100240E3
:100E000029B1064AD2680243044BDA6004E0034A7F
:100E1000D2688243014BDA60704700000010024044
:100E200030B500210022002400232D4D6D6805F00F
:100E30000C0121B1042905D0082923D105E0294D51
:100E4000056022E0274D05601FE0254D6D6805F423
:100E50007012234D6D6805F48034022505EB924233
:100E60001CB9214D554305600BE01D4D6D6805F41F
:100E700000351DB11C4D5543056002E0194D554329
:100E8000056002E0174D056000BF00BF144D6D689E
:100E900005F0F0010909154D6B5C0568DD40456002
:100EA0000F4D6D6805F4E061090A104D6B5C4568F3
:100EB000DD4085600A4D6D6805F46051C90A0B4D2F
:100EC0006B5C4568DD40C560054D6D6805F44041CB
:100ED000890B074D6B5CC568B5FBF3F5056130BD4B
:100EE0000010024000127A0000093D00520000206C
:100EF00062000020704700000448D0E900305A1C0E
:100F000040F100000149C1E900207047380000208D
:100F10000CB53D48006840F001003B4908600846B8
:100F200040683A490840384948600846406820F41B
:100F3000FE0048604FF41F00886000200190009080
:100F40000846006840F48030086000BF2E48006802
:100F500000F4003000900198401C0190009818B9EE
:100F60000198B0F5A06FF1D12748006800F4003077
:100F7000002843D02648006840F01000244908604B
:100F80000846006820F0030008600846006840F04A
:100F9000020008601C4840681B49486008464068D9
:100FA00048600846406840F48060486008464068F1
:100FB00020F47C1048600846406840F4E81048601F
:100FC0000846006840F08070086000BF0E48006866
:100FD00000F000700028F9D00B48406820F00300B2
:100FE000094948600846406840F00200486000BF78
:100FF0000548406800F00C000828F9D14FF0006067
:10100000044908600CBD0000001002400000FFF819
:101010000020024008ED00E00848806940F001002F
:10102000064988610648406820F0E060044948604D
:101030000846406840F00070486070470010024069
:10104000000001402DE9F04786B00121880700F03B
:10105000EFF800287ED00121880700F0DAF802219D
:101060004748FFF761FC814646494846FFF7F8F8D4
:1010700082465046FFF755FA07460022424BFFF7DB
:10108000C2F905462A460B4640A102A800F08EFE92
:1010900000204FF6FF71182302AACDE90010192194
:1010A0001420FFF7BFFD00204FF6FF71102339A277
:1010B000CDE9001008211420FFF7B4FD5046FFF7DA
:1010C000FDFD04463548007820B93548008835498B
:1010D000086013E00020F0234FF4A0720146009056
:1010E000FFF726FD00202E4908802C4908702C4867
:1010F00000882C49086001202B4908602B480068B3
:10110000401C90B12848006878B9284805684FF617
:10111000FF70244B00901B889AB2254B1B8899B214
:10112000A8B22346FFF727FD00BF1E49098888B2F1
:101130004FF6FF722146FFF7EDFC1A4800681B4985
:1011400008601B4804601548007890B9144800886E
:10115000401C00E011E01249088008460088B0F504
:10116000A07F06DB01200D49087040F23F100C49BA
:10117000088000200C49086000BF06B0BDE8F08779
:10118000000801407CF0C13F00000440252B362EB2
:1011900032665600B5E7D1B9CEAA000002000020A1
:1011A000000000200C00002010000020040000209F
:1011B000080000201FB501210846FFF7F1FD40F6A9
:1011C000B730ADF8080041F61F40ADF8040000202C
:1011D000ADF80A00ADF8060001A94FF0804000F01C
:1011E00041F801221146900700F033F801218807E9
:1011F00000F012F81C208DF8000000208DF801008E
:1012000001208DF802008DF803006846FFF78EFD7F
:101210001FBDCA430282704721B1028842F0010219
:10122000028004E002884FF6FE731A400280704785
:1012300030B50246002000230024158A05EA010388
:10124000958905EA010413B10CB1012000E00020EA
:1012500030BD1AB183890B43838102E083898B43BC
:1012600083817047002202881D4B98420ED01D4B8F
:1012700098420BD0B0F1804F08D01B4B984205D05C
:101280001A4B984202D01A4B984204D14FF68F73F2
:101290001A404B881A43174B984207D0164B984276
:1012A00004D04FF6FF431A40CB881A4302808B8844
:1012B00083850B8803850A4B98420BD0094B9842D3
:1012C00008D00E4B984205D00D4B984202D00D4BE2
:1012D000984201D10B7A0386012383827047000074
:1012E000002C014000340140000400400008004090
:1012F000000C00400010004000140040004001407D
:10130000004401400048014010B53048008800F01A
:101310002000A0B12E480088B0F5806F03DB2B4879
:10132000001D008810BD2948001D0088C1B2284852
:1013300002880088401C264B188026488154234888
:10134000008800F01000D8B100202349A1F80E0C4D
:101350004FF480621F492148FEF706FF1C480088B1
:101360001D49A1F80E0C0020194908804FF4806136
:101370001848FEF712FF154800881448001D008821
:101380001248008800F08000F0B110480C3000884E
:1013900000F08000C0B1124801780078401C104A6B
:1013A00010701048405C0949091D088010460078FB
:1013B0000D490978884207D104480C30008820F094
:1013C000800002490C31088000BFABE7004C0040B0
:1013D0002C000020A03500208A1000209A1C00203C
:1013E0001A000020A02700201B00002010B52C4868
:1013F000008800F0200090B12A480088B0F5806F86
:1014000002DB2748808810BD25488088C1B2254866
:1014100002880088401C234B1880234881542048B0
:10142000008800F01000C0B10021204841824FF434
:1014300080621D491430FEF797FE1A4801881B4848
:1014400041820020174908804FF480611648FEF75A
:10145000A4FE13480088124880881148008800F0D4
:101460008000D0B10E48808900F08000A8B11048FB
:1014700001780078401C0E4A10700E48405C084904
:101480008880104600780C490978884205D10448C4
:10149000808920F080000249888100BFB3E7000006
:1014A000005000402E000020A03900208A2000209B
:1014B0001C000020A02800201D00002010B530488E
:1014C000008800F02000A0B12E480088B0F5806FA1
:1014D00003DB2B48001D008810BD2948001D008833
:1014E000C1B2284802880088401C264B1880264834
:1014F00081542348008800F01000D0B10020234917
:1015000048804FF4806220492048001DFEF72CFEE1
:101510001C4800881D49488000201A4908804FF463
:1015200080611948FEF739FE154800881448001DEF
:1015300000881348008800F08000F0B110480C309B
:10154000008800F08000C0B1114801780078401C8C
:101550000F4A10700F48405C0949091D0880104669
:1015600000780D490978884207D105480C30008879
:1015700020F0800002490C31088000BFACE7000079
:101580000038014024000020A02900208A100020FB
:1015900014000020A02400201500002010B586B003
:1015A00004463648806940F48040344988610846E2
:1015B000806940F0040088614815ADF814000320EC
:1015C0008DF8160018208DF8170005A92C48FFF794
:1015D000E2F94FF48060ADF8140004208DF8170094
:1015E00005A92748FFF7D7F925208DF8100002201C
:1015F0008DF811008DF8120001208DF8130004A859
:10160000FFF794FB1F4800F06BF900940020ADF841
:101610000400ADF80600ADF80800ADF80C000C2091
:10162000ADF80A006946174800F0CEF9002240F2F2
:101630002771144800F0A2F9012240F22551114807
:1016400000F09CF9012240F224410E4800F096F986
:1016500001210C4800F038F94FF60F700949088055
:101660000120094908700020488008A000F08EFB86
:1016700016A000F08BFB06B010BD00000010024069
:1016800000080140003801408A1000200D0D0D3D7A
:101690003D3D3D3D3D3D3D3D3D3D20C4A7C5AEBF2B
:1016A000AAB7A2B0E52053544D333246313033202F
:1016B000CDE2C9E8B3F5CABCB1A8B8E6203D3D3DCE
:1016C0003D3D3D3D3D3D3D3D0D00000055534152EA
:1016D0005431B3F5CABCBBAFC5E4D6C3202020202B
:1016E0002020BDD3CAD5D6D0B6CFA1A2BFD5CFD0EA
:1016F000D6D0B6CF2C20B7A2CBCDD6D0B6CF0D004A
:1017000010B53048008800F02000A0B12E480088B5
:10171000B0F5806F03DB2B48001D008810BD294801
:10172000001D0088C1B2284802880088401C264B52
:101730001880264881542348008800F01000D8B152
:1017400000202349A1F806044FF480621F49214874
:10175000FEF70AFD1C4800881D49A1F80604002078
:10176000194908804FF480611848FEF716FD1548A6
:1017700000881448001D00881248008800F080008E
:10178000F0B110480C30008800F08000C0B1124861
:1017900001780078401C104A10701048405C0949DC
:1017A000091D0880104600780D490978884207D144
:1017B00004480C30008820F0800002490C31088079
:1017C00000BFABE70044004028000020A02D00200F
:1017D0008A1000209214002016000020A02500206E
:1017E0001700002010B53048008800F02000A0B19C
:1017F0002E480088B0F5806F03DB2B48001D008861
:1018000010BD2948001D0088C1B228480288008800
:10181000401C264B1880264881542348008800F03D
:101820001000D8B100202349A1F80A084FF48062C3
:101830001F492148FEF798FC1C4800881D49A1F863
:101840000A080020194908804FF480611848FEF703
:10185000A4FC154800881448001D00881248008820
:1018600000F08000F0B110480C30008800F08000DB
:10187000C0B1124801780078401C104A107010481E
:10188000405C0949091D0880104600780D49097817
:10189000884207D104480C30008820F080000249BB
:1018A0000C31088000BFABE7004800402A00002050
:1018B000A03100208A100020961800201800002077
:1018C000A02600201900002021B1828942F4005294
:1018D000828104E082894DF6FF731A40828170474D
:1018E00010B504462048844209D101218803FFF73E
:1018F00087FA00214FF48040FFF782FA32E01B485C
:10190000844209D101214804FFF75AFA00214FF41B
:101910000030FFF755FA25E01548844209D101212E
:101920008804FFF74DFA00214FF48020FFF748FAB2
:1019300018E01048844209D10121C804FFF740FA99
:1019400000214FF40020FFF73BFA0BE00A488442E5
:1019500008D101210805FFF733FA00214FF4801068
:10196000FFF72EFA10BD000000380140004400408F
:1019700000480040004C004000500040F0B50346D5
:10198000002400260025002040F66A17B94200D145
:1019900000BF1846C1F3421401F01F06012707FAE1
:1019A00006F5012C01D10C3004E0022C01D11030DD
:1019B00000E014301AB107682F43076002E007689F
:1019C000AF430760F0BD00002DE9F04786B0054643
:1019D0000E460024A24600BFA1460027B08900B1F0
:1019E00000BF2F462C8A4CF6FF700440F088044359
:1019F0002C82AC894EF6F3100440B088318908433C
:101A0000718908430443AC81AC8A4FF6FF4004401F
:101A1000B0890443AC8201A8FFF702FA1F4887424D
:101A200002D1DDF810A001E0DDF80CA0A88900F4D7
:101A3000004040B10AEBCA0000EB0A1031684900CF
:101A4000B0FBF1F807E00AEBCA0000EB0A103168BE
:101A50008900B0FBF1F86420B8FBF0F00401200924
:101A6000642101FB1089A88900F4004040B13220B4
:101A700000EBC900B0FBF1F000F00700044308E000
:101A8000322000EB09106421B0FBF1F000F00F00F0
:101A900004432C8106B0BDE8F08700000038014007
:101AA00000BFFEE708B500201A4908700120487001
:101AB0001948806940F4805017498861012110203D
:101AC000FFF78EF901210420FFF78AF94FF4005047
:101AD000ADF8000010208DF8030003208DF80200FF
:101AE00069460E48FEF757FF4FF400500B49086156
:101AF000E020ADF8000018208DF803006946084882
:101B0000FEF749FF01F048FD01F0D6FB00F0CAFEE8
:101B100008BD0000720000200010024000100140CB
:101B2000000801402DE9F04104460E4617461448CE
:101B3000007808B9BDE8F08101F02EFD4FF00050AB
:101B400010490861032001F0CDFCC4F3074001F007
:101B5000C9FCC4F3072001F0C5FCE0B201F0C2FCEF
:101B6000002504E0FF2001F0BDFC70556D1CBD4256
:101B7000F8D34FF400500349086100BFDAE70000D2
:101B800072000020001001402DE9F04782460C460B
:101B900090462046E21704EB5272D2102146E3171A
:101BA00004EB5373DB10A4EBC3030BB1012300E080
:101BB00000231A44624302F0FF099AF800600AF118
:101BC000010082460578812E05DB402D03DBFF2DC9
:101BD00001D0FF2E0AD1002004E0002108F8011BEB
:101BE000411CC8B24845F8DBBDE8F0877F2D03DA19
:101BF000A5F14000C5B202E0A5F14100C5B2A6F1D1
:101C00008100C6B2BE2000FB065000FB09F70C2C79
:101C100006D0102C0BD0182C12D0202C22D118E07A
:101C20004A46414607F52000FFF77CFF1AE04A4686
:101C3000414607F520000D4B1844FFF773FF11E0F4
:101C40004A46414607F52000094B1844FFF76AFF52
:101C500008E04A46414607F52000064B1844FFF7C6
:101C600061FF00BF00BF00BFBEE7000060C4080006
:101C7000E074140000C22E002DE9F04707468846A4
:101C800014462748007808B9BDE8F0873819B0F540
:101C9000200F07D922484078012803D121A000F065
:101CA00075F8F1E73E0BC7F30B09C9F58055DFF86E
:101CB000A8A001F071FCAC4200DC25462BE030030B
:101CC0004FF480525146FFF72DFF304600F0E2FFFF
:101CD000002007E018F8001009EB00020AF80210D3
:101CE000411C88B2A842F5DB30034FF480525146C4
:101CF00001F094FCA54200D10EE0A844761C4FF000
:101D00000009601B84B2B4F5805F02DD4FF480509F
:101D100000E020460546D2E700BF00BFB4E7000060
:101D200072000020D2AAD0B4C8EBB5C4CAFDBEDD93
:101D3000D4DAD7D6BFE2CAFDBEDDB4E6B4A2C7F896
:101D4000C4DAA3ACD2D1CCF8B9FDB1BEB4CEB2D90D
:101D5000D7F721210D0000008A00002010B54FF0B8
:101D6000005009490861052001F0BCFB00BFFF20BD
:101D700001F0B8FB00F001000028F8D14FF400504A
:101D80000149086110BD0000001001400FB4054B6F
:101D900010B503A9044A029800F0EEF810BC5DF8F3
:101DA00014FB0000E92C0008200000200FB4084BB1
:101DB00010B504A902AA039800F0DEF8044602A9AF
:101DC000002000F070FC204610BC5DF814FB000001
:101DD000A726000802E008C8121F08C1002AFAD18D
:101DE00070477047002001E001C1121F002AFBD19B
:101DF000704700002DE9FF5F82B00021DDE904306B
:101E0000020DDDF840B0034318D044F61050A2F2A2
:101E1000FF3242431514119801281FD0A5EB0B0087
:101E2000401C5FEA000A4FF000064E4FDFF8389181
:101E3000B046504615D5CAF1000413E011980124AC
:101E40004AA3012801D16FEA0B010298119AC0E957
:101E50000031C0E9024206B0BDE8F09FCBF10000BE
:101E6000DFE704460021404A491842EB0450CDE91F
:101E7000001012E0E00707D032463B464046494694
:101E8000FEF78EFC8046894632463B461046194690
:101E9000FEF786FC06460F466410002CEAD1DDE909
:101EA0000401DDE90023BAF1000F06DAFEF778FC41
:101EB00042464B46FEF774FC05E0FEF7AAFA42469E
:101EC0004B46FEF7A6FA04460E460022284BFEF7C4
:101ED000F1FC03D84FF0FF30014607E00022254B0C
:101EE00020463146FEF7EEF9FEF7CCFC102409E05F
:101EF000002C0ADB0A220023FEF76CFB039B303226
:101F00001A55641E50EA0102F2D1641C039AC4F10E
:101F100011031444119A012A03D0012208430DD160
:101F20000AE0084304D000204FF0110B119072E733
:101F3000A3EB0B056D1E0DE05B4504DD4FF00002C9
:101F400005F1010504E003DA4FF00002A5F10105F7
:101F5000002AECD002981199C0E90231C0E900458D
:101F600079E70000000014400000F03F300000005E
:101F70000000F0430000E03F2DE9FF4F95B09B4685
:101F80008946064600250FE2252877D100242746FA
:101F9000F84A0121059400E0044316F8013F203B74
:101FA00001FA03F01042F7D130782A2811D06FF0EF
:101FB0002F033078A0F13002092A16D8059A44F090
:101FC000020402EB820203EB42021044761C0590ED
:101FD000EFE759F8042B0592002A03DA504244F443
:101FE0000054059044F00204761C30782E2816D157
:101FF00016F8010F44F004042A280DD06FF02F02C8
:102000003078A0F13003092B09D807EB870302EBE6
:102010004303C718761CF3E759F8047B761C307825
:102020006C280FD006DC4C2817D068280DD06A2801
:1020300014D104E0742810D07A280FD10DE044F4B4
:1020400000140AE044F4801401E044F4401472786F
:10205000824202D104F58014761C761C3078662802
:102060000BD013DC582877D009DC002875D0452820
:10207000F6D04628F4D047281AD19DE118E063280D
:1020800035D0642879D0652812D195E1702873D0B5
:1020900008DC6728F1D069286FD06E280DD06F2832
:1020A00006D1B5E073282CD0752875D0782874D067
:1020B0005A46179990476D1C75E1C4F302500228E7
:1020C00009D003280DD0D9F8001004280DD00D60D8
:1020D00009F1040967E1D9F80010EA17C1E90052D3
:1020E000F6E7D9F800100D80F2E70D70F0E719F867
:1020F000041B8DF8001000208DF80100EA46012035
:1021000003E059F804AB4FF0FF3061074FF00001D6
:1021100002D40DE008F101018846B9420FDA80458A
:10212000F8DB1AF808100029F4D108E008F10101E1
:1021300088468142FADB1AF808100029F6D1059882
:102140005B46A0EB080721463846179A00F094FA40
:10215000284400EB080507E04DE029E10DE01AF8FE
:10216000010B5A4617999047B8F10108F7D25B4620
:1021700021463846179A13E142E00A220092C4F33E
:1021800002524FF0000A022A08D059F804CB032A61
:102190004FEAEC710AD00DE029E02AE009F10701CD
:1021A00021F00702F2E802C1914609E00FFA8CFC27
:1021B0004FEAEC71042A03D14FFA8CFC4FEAEC7120
:1021C000002907DA0A460021DCF1000C61EB02016C
:1021D0002D2202E0220504D52B228DF804200122B5
:1021E00003E0E20701D02022F7E7904659E00A21F8
:1021F00002E010220DE010214FF0000A00910BE0E8
:1022000010224FF0000A44F004040827009203E073
:1022100008224FF0000A0092C4F30252022A05D0AD
:1022200059F804CB0021032A08D009E009F107017D
:1022300021F00702F2E802C1914605E01FFA8CFC8A
:10224000042A01D10CF0FF0C4FF00008220728D51A
:10225000702806D0009B83F0100353EA0A0305D0D0
:102260000EE040228DF80420012208E05CEA010221
:1022700006D030228DF804208DF805000222904609
:10228000009B83F0080353EA0A030AD15CEA0102C7
:1022900001D1620705D530228DF804204FF00108E6
:1022A0007F1E582804D034A003900EA802900DE0A1
:1022B00036A0F9E753466046009AFEF78BF984464C
:1022C0000398825C0298401E029002705CEA010052
:1022D000F0D1029806A9081A00F1200A600702D579
:1022E00024F4803400E00127574502DDA7EB0A0003
:1022F00000E0002000EB0A01009005984144401ADC
:102300000590E00306D45B462146179A059800F035
:10231000B3F90544002706E001A85A46C05D1799A5
:1023200090476D1C7F1C4745F6DBE0030CD55B46F0
:102330002146179A059800F09FF9054404E03020E3
:102340005A46179990476D1C0099481E0090002925
:10235000F5DC08E0029802995A460078491C02917F
:10236000179990476D1CBAF10001AAF1010AF1DC3E
:1023700065E1000009280100303132333435363749
:1023800038396162636465660000000030313233C1
:102390003435363738394142434445460000000061
:1023A00000F058F90544761C307800287FF4ECAD35
:1023B00019B02846BDE8F08F620700D4062709F15E
:1023C000070222F0070CFCE80223E14603F0004874
:1023D0005FEA080C02D00FF2702C0DE05FEA045C9B
:1023E00002D50FF2682C07E05FEAC47C02D00FF23E
:1023F000602C01E0AFF2700C4FF0FF3823F0004387
:10240000CDF850C065280CD006DC452809D04628F8
:102410001DD047283DD13DE0662818D067287ED1E1
:1024200038E00021112F01DB112000E0781CCDE9FC
:10243000000106A90EA8FFF7DDFCDDE90F010E9AE9
:1024400003910021009207F1010A04914DE04FF041
:1024500000400097CDE9011006A90EA8FFF7CAFCBD
:10246000DDE90F0203920E9B11990022DDF80CA00A
:102470000093049211B9791C00EB010AB7EB0A0032
:1024800004D4C0F1FF3007F1010A0490AAEB070061
:10249000019044E0012F00DA01270021112F01DD16
:1024A000112000E03846CDE9000106A90EA8FFF78B
:1024B000A1FCDDE90F010E9A039100210491009225
:1024C000BA4621070CD40399514500DA8A46BAF17D
:1024D000010F05DD009AAAF10101515C302908D0F5
:1024E000B84202DA10F1040F06DA0121CDE9011039
:1024F00015E0AAF10101E9E7002805DC049901448F
:102500000491AAEB000102E0411C514500DD8A461E
:102510000499401A401C01904FF00040029020079F
:1025200004D40198504501DBCDF8048000208DF8DB
:102530004F0002980DF14F07B0F1004F25D02B202E
:102540000E9002984FF0020800280CDA40420290E8
:102550002D200E9007E00A210298FEF725F8303171
:10256000029007F8011DB8F10001A8F10108F2DCA2
:1025700002980028EFD1791E0E980870307800F08C
:10258000200040F0450007F8020D12A8C01B00F122
:1025900007081498007800B1012000EB0A010198A7
:1025A00001EBE07105984144401A401E0590E0039C
:1025B00006D45B462146179A059800F05DF805445D
:1025C0001498007818B15A46179990476D1CE0038B
:1025D00024D55B462146179A059800F04DF805442E
:1025E0001CE00498002807DBDDE90301884203DDD5
:1025F0000098405C179901E0179930205A4690479F
:10260000049805F10105401C04900198401E0190BA
:1026100004D12E205A46179990476D1CBAF100013B
:10262000AAF1010ADDDC05E017F8010B5A461799FB
:1026300090476D1CB8F10001A8F10108F4DC5B467D
:102640002146179A0598ABE62D0000002B000000EC
:10265000200000002DE9F041044600251E461746E3
:10266000880404D405E039462020B0476D1C641E60
:10267000F9D52846BDE8F0812DE9F0410446002552
:102680001E469046C80301D5302700E02027880465
:1026900004D505E041463846B0476D1C641EF9D5A7
:1026A0002846BDE8F0810A68531C0B601070704723
:1026B000374A904205D1374A926942F00402354BBD
:1026C0009A61354A904205D1324A926942F0080235
:1026D000304B9A61314A904205D12E4A926942F0BC
:1026E00010022C4B9A612E4A904205D1294A9269D8
:1026F00042F02002274B9A612A4A904205D1254A8E
:10270000926942F04002234B9A61274A904205D1D8
:10271000204A926942F080021E4B9A61234A9042FD
:1027200005D11C4A926942F480721A4B9A610129C0
:1027300003D1026822F00F020260022903D102686D
:1027400022F0F0020260042903D1026822F47062D0
:102750000260082903D1026822F470420260102945
:1027600003D1026822F470220260202903D102689A
:1027700022F470020260402903D1026822F07062E4
:102780000260402903D1026822F070420260704763
:102790000008014000100240000C01400010014000
:1027A0000014014000180140001C014000200140BD
:1027B00002463948824203D1012901D100207047E5
:1027C0003548824203D1022901D10120F7E732487E
:1027D000824203D1042901D10220F0E72E4882422F
:1027E00003D1082901D10320E9E72B48824203D114
:1027F000102901D10420E2E72748824203D1202991
:1028000001D10520DBE72448824203D1402901D1D0
:102810000620D4E72048824203D1802901D1072035
:10282000CDE71E48824203D1012901D10820C6E725
:102830001A48824203D1022901D10920BFE7184872
:10284000824203D1012901D10A20B8E7144882420B
:1028500003D1022901D10B20B1E71148824203D1F3
:10286000042901D10C20AAE70D48824203D108298E
:1028700001D10D20A3E70A48824203D1102901D1DA
:102880000E209CE70648824203D1202901D10F2067
:1028900095E7632093E7000000080140000C014029
:1028A0000010014038B51748007800B938BD16A0AF
:1028B000FFF76CFA00240020009000250BE005F5DE
:1028C000200001226946FFF72DF99DF80000204401
:1028D000C4B21348054413488542F0D3922C01D169
:1028E000012000E000200749487008464078012890
:1028F00003D10DA0FFF74AFA02E00EA0FFF746FA57
:1029000000BFD3E77200002047424BD7D6BFE2207A
:10291000B2E2CAD42E2E2E2020202020202000001B
:1029200040420F0000845D00D7D6BFE2BFC9D3C3C9
:102930000D00000020B4EDCEF3A3ACD7D6BFE2B2B9
:10294000BBBFC9D3C3210D0010B54648806940F410
:102950000070444988610846C06840F40070C8604F
:102960000846C06820F40070C8600846406820F43B
:10297000404048600846406840F4004048600020FD
:102980003949086008460068086008460068086021
:102990000020091D086008460068086008460068B5
:1029A00008600846006840F4602008600846006837
:1029B00040F48010086008460068086000202A493A
:1029C0002831086008460068086028482649083110
:1029D00008602748091D08602348001D006840F072
:1029E00001002149091D08600846006840F0080000
:1029F000086000BF1C48001D006800F008000028A7
:102A0000F8D11948001D006840F004001649091D5E
:102A1000086000BF1448001D006800F00400002892
:102A2000F8D1052000F042F80E48406940F001005E
:102A30000C4948610C4848300E4908610E4848610D
:102A40000120C86042F2205088600748001D0068DD
:102A500040F480700449091D08600120074908708E
:102A600010BD00000010024004240140DBB6FD0050
:102A7000DBB66D1B00000240320000203000002059
:102A800041F664114843002100E0491C8142FCD317
:102A9000704701B50098C0EBC000009000E000BF97
:102AA0000098401E00900028F9D108BD04E00021E4
:102AB00000E0491C0729FCD3011EA0F10100F6D15A
:102AC000704700002DE9F84F80460F4615461C461A
:102AD000BA462046E31704EB5373DB102146E61792
:102AE00004EB5676F610A4EBC6060EB1012600E004
:102AF00000263344224604EBD2767610734303F06B
:102B0000FF0BA5F12000C5B200265CE00C2C07D11C
:102B100005EB45002E4901EB800010F806901BE004
:102B2000102C05D12B4800EB051010F8069013E08F
:102B3000182C07D105EBC500274901EB800010F8E0
:102B4000069009E0202C05D1244800EB851010F8F0
:102B5000069001E0BDE8F88F002000902DE009F01C
:102B6000800030B10A9882B239464046FDF7D2FF64
:102B700005E00B9882B239464046FDF7CBFF4FEA9D
:102B800049604FEA1069781C87B215488088B842BE
:102B900000DCDFE7A7EB0A00A0420AD1574608F1A4
:102BA00001001FFA80F80E484088404500DCD1E75C
:102BB00006E00098401CC0B2009000980828CEDBC8
:102BC00000BF701CC6B25E45A0DB00BFC2E70000BC
:102BD0006E370008E23B0008D24100082E4F000883
:102BE000680000202DE9F04FA1B007460D46904641
:102BF0001C46A9462046E21704EB5272D210214629
:102C0000E31704EB5373DB10A4EBC3030BB10123F5
:102C100000E000231A44624302F0FF0A6A4621469C
:102C20004046FEF7B1FF00262EE01DF8060020907A
:102C30004FF0000B22E0209800F0800030B12A987D
:102C400082B229463846FDF765FF05E02B9882B22F
:102C500029463846FDF75EFF20984006000E20907A
:102C6000681C85B2A5EB0900A04203D14D46781C33
:102C700087B206E00BF1010000F0FF0BBBF1080F7B
:102C8000D9DB00BF701CC6B25645CEDB21B0BDE813
:102C9000F08F000010B504461148007800B910BD4F
:102CA000240300F0ABFCFFF759F84FF000500D493A
:102CB0000861202000F016FCC4F3074000F012FC6D
:102CC000C4F3072000F00EFCE0B200F00BFC4FF460
:102CD000005004490861FFF741F800BFDFE700003A
:102CE000720000200010014000BF054A128802F067
:102CF0004002002AF9D0C2B2014B1B1D1A80704756
:102D0000003801402048406940F480701E49486105
:102D100000204FF02041086048601C4908604FF0D7
:102D20002040006840F480504FF020410860084681
:102D3000006840F4804008600846006840F01000D9
:102D400008600846406848600846406840F0010056
:102D500048600846406840F4706048600B4800686E
:102D6000C1F8040109480068C1F804010846D0F818
:102D7000040140F44070C1F804010846006840F0C6
:102D8000010008607047000000100240040100A02C
:102D90002DE9F04104460D4600261F48007808B989
:102DA000FFF7D2FD102C01D0112C05D11B48006873
:102DB00040F400001949086018482C3004600027CE
:102DC00022E001201649C8600846806840F00100F2
:102DD00088601248006840F480001049086000BF15
:102DE0000F48006800F002000028F9D00C48406845
:102DF00040F002000A4948600A4800880644022060
:102E0000FFF754FE781CC7B2AF42DADBB6FBF5F031
:102E100080B2BDE8F08100003000002008240140AD
:102E2000000002403200002008B56448806940F08C
:102E30000400624988610846806940F008008861A2
:102E40000846806940F0100088610846806940F0BB
:102E5000200088610846806940F0400088610320B6
:102E60008DF8020018208DF803004FF48040ADF873
:102E7000000069465248FDF78EFD4FF40040ADF862
:102E8000000069464E48FDF786FD0120ADF80000C0
:102E900069464B48FDF77FFD0220ADF8000069460A
:102EA0004748FDF778FD8020ADF8000069464548A9
:102EB000FDF771FD4FF48070ADF8000069464148A0
:102EC000FDF769FD4FF40070ADF8000069463D481C
:102ED000FDF761FD4FF48060ADF8000069463948A8
:102EE000FDF759FD4FF40060ADF800006946354824
:102EF000FDF751FD4FF48050ADF8000069463148B0
:102F0000FDF749FD4FF40050ADF8000069462D482B
:102F1000FDF741FD4FF48040ADF8000069462948B7
:102F2000FDF739FD4FF40040ADF800006946254833
:102F3000FDF731FD4FF48070ADF800006946204880
:102F4000FDF729FD4FF40070ADF8000069461C48FC
:102F5000FDF721FD4FF48060ADF800006946184888
:102F6000FDF719FD1020ADF8000069461448FDF783
:102F700012FD2020ADF8000069461148FDF70BFD59
:102F80008020ADF8000069460D48FDF704FD4FF4C0
:102F90000060ADF8000069460948FDF7FCFC102010
:102FA0008DF8030003208DF802004FF40040ADF8C7
:102FB000000069460448FDF7EEFC08BD0010024021
:102FC00000140140001801400008014008B5D3205A
:102FD00000F068FB00F06AF900F068F900F066F9AB
:102FE000A0490881084600894FF6FF7101EA0020D8
:102FF0009C49088100F05AF99A490989084399497E
:1030000008810846018998A0FEF7C0FE954800890E
:1030100049F24131884200D008BDCF2000F042FB88
:10302000002000F0E5FAC12000F0E2FA302000F0C4
:10303000DFFAED2000F036FB642000F0D9FA03201F
:1030400000F0D6FA122000F0D3FA812000F0D0FA76
:10305000E82000F027FB852000F0CAFA102000F0DD
:10306000C7FA7A2000F0C4FACB2000F01BFB39200D
:1030700000F0BEFA2C2000F0BBFA002000F0B8FAF5
:10308000342000F0B5FA022000F0B2FAF72000F088
:1030900009FB202000F0ACFAEA2000F003FB00203E
:1030A00000F0A6FA002000F0A3FAB12000F0FAFA2E
:1030B000002000F09DFA1A2000F09AFAB62000F0E5
:1030C000F1FA0A2000F094FAA22000F091FAC02050
:1030D00000F0E8FA1B2000F08BFAC12000F0E2FAC1
:1030E000012000F085FAC52000F0DCFA302000F065
:1030F0007FFA302000F07CFAC72000F0D3FAB72026
:1031000000F076FAF22000F0CDFA002000F070FA1C
:10311000262000F0C7FA012000F06AFAE02000F053
:10312000C1FA0F2000F064FA2A2000F061FA28208A
:1031300000F05EFA082000F05BFA0E2000F058FA6A
:10314000082000F055FA542000F052FAA92000F0AF
:103150004FFA432000F04CFA0A2000F049FA0F2001
:1031600000F046FA002000F043FA002000F040FA98
:10317000002000F03DFA002000F03AFAE12000F0D3
:1031800091FA002000F034FA152000F031FA1720EF
:1031900000F02EFA072000F02BFA112000F028FA98
:1031A000062000F025FA2B2000F022FA562000F02D
:1031B0001FFA3C2000F01CFA052000F019FA10203C
:1031C00000F016FA0F2000F013FA3F2000F010FA7A
:1031D0003F2000F00DFA0F2000F00AFA2A2000F03C
:1031E00061FA002000F004FA002000F001FA00204B
:1031F00000F0FEF9EF2000F0FBF92B2000F052FA6E
:10320000002000F0F5F9002000F0F2F9012000F0B4
:10321000EFF93F2000F0ECF93A2000F043FA552096
:1032200000F0E6F9112000F03DFA0A20FFF728FC33
:10323000292000F037FA0020FDF73AFC1148006819
:1032400040F400400F490860002000900548838842
:10325000428800210846FDF76BFC012001490870F7
:1032600000BFD9E668000020CFD4CABEC6C120BCCA
:10327000ECB2E22E2E2E20202020202020202578A7
:103280000D0A0000100801404FF4E130FEF786F906
:10329000FDF7C2FEFEF706FCFDF765FC0520FDF715
:1032A00007FCFDF787FF00BFFEE70000014800882C
:1032B0007047000000000260F8B500254FF0005094
:1032C00052490861902000F00DF9002000F00AF941
:1032D000002000F007F9002000F004F9FF2000F0C2
:1032E00001F90502FF2000F0FDF805434FF40050FE
:1032F00046490861012046490870A5F56F40143819
:10330000052827D2DFE800F0030A11181F0041A2A8
:1033100042A13F48801CFEF749FD29E040A23FA1A1
:103320003B48801CFEF742FD22E03FA23BA138480B
:10333000801CFEF73BFD1BE03DA238A13448801CF9
:10334000FEF734FD14E03CA234A13148801CFEF7A6
:103350002DFD0DE03AA231A12D48801CFEF726FD7F
:1033600000202B49087029463AA0FEF70FFD00BF48
:1033700000BF27480078012840D100260020009097
:1033800000270024042269463046FEF7CBFB9DF857
:1033900001009DF8001040EA01279DF803009DF808
:1033A000021040EA0124B7F56E4F07D00124002037
:1033B0008DF8020001208DF803000CE0601C84B23F
:1033C00020128DF80200E0B28DF8030000208DF885
:1033D00002008DF80300EE208DF8000000208DF82B
:1033E0000100042269463046FEF746FC0848C482C4
:1033F0002246811C1EA0FEF7C9FC05E027A0FEF7AF
:10340000C5FC33A0FEF7C2FCF8BD0000001001406F
:10341000720000205732355131360000257300000C
:1034200057323551333200005732355136340000AF
:103430005732355131323800573235513235360036
:10344000466C617368C9E8B1B8CAA7B0DC20212115
:1034500021000000B6C1C8A1B5BDB5C4B4EDCEF31E
:10346000D0CDBAC5CAFDBEDDA3BA25640D0A0000E1
:10347000466C617368B4E6B4A220BCECB2E22E2EB6
:103480002E2020202020D0CDBAC53A2573202CB57F
:10349000DA2564B4CECAB9D3C30D0000CAFDBEDDBF
:1034A000B4E6B4A2BCECB2E2A3BA202020202020D3
:1034B0002020D0CDBAC5B6C1C8A1B4EDCEF3A3AC1F
:1034C000C9E8B1B8B2BBBFC9D3C3210D0000000029
:1034D000B3A2CAD4B8B4CEBBD0BEC6AC2E2E2E2E4C
:1034E0002E2E0D000246002105E0481CC1B2FA292B
:1034F00001DD002070470D48008900F0020000281F
:10350000F3D00A488281002105E0481CC1B2FA29A3
:1035100001DD0020EEE70548008900F001000028E9
:10352000F3D002488089C0B2E4E7000000300140D7
:103530002DE9F04104460D4616461F462A2000F0AC
:10354000B1F8201200F054F8E0B200F051F8A119DF
:10355000491EC1F30F2000F04BF8A119491EC8B253
:1035600000F046F82B2000F09DF8281200F040F8FB
:10357000E8B200F03DF8E919491EC1F30F2000F050
:1035800037F8E919491EC8B200F032F82C2000F0D3
:1035900089F8BDE8F081000010B5012013490880CA
:1035A0000846008840F0020008800846008840F085
:1035B00004000880084600880880084600880880C3
:1035C0000846008840F4007008800846008840F4EF
:1035D000807008800846008808800846008840F00F
:1035E000400008800A20FFF754FA10BD0030014067
:1035F00001490880704700000000026010B54FF0DC
:103600000050054908610620FFF76CFF4FF4005099
:103610000149086110BD0000001001402DE9F0478C
:1036200004460E4691461D48007808B9BDE8F0876B
:103630004FF480754FF000082AE0FFF7DFFFFEF738
:103640008DFB4FF00050164908610220FFF74AFF3A
:10365000C4F30740FFF746FFC4F30720FFF742FF1C
:10366000E0B2FFF73FFF002704E0F05DFFF73AFF0D
:10367000781C87B2AF42F8DB4FF40050084908616C
:10368000FEF76CFB2E442C4408F1010000F0FF080B
:10369000B8F1100FD1DB00BFC8E7000072000020B6
:1036A000001001404FF0C04108807047800080004A
:1036B0008000FC1F40004000FF7F20001000F00F42
:1036C00000080004600280010002000400010402FE
:1036D0000800E83F0102020202020802C83F040299
:1036E0000702040204020402F47F00000000F80F45
:1036F00008080808F80F08080808F80F2002222216
:1037000024222812280A2002FF7F00000000FC1F4C
:103710000000000000000000FF7F8000800088089B
:103720008810842082408140A0004000400080003A
:103730008000FF7F200020002000E00F20082008EC
:103740002008100810080808040502028000FE3F47
:1037500002202000FF7F10047802C0033C1C800080
:10376000FF7FA00290048C1883608000000000009E
:1037700000000000000000000000000000003F40CA
:103780000000000000000000300040003000400059
:10379000000009000BC03D000BC03D00090018C02F
:1037A00024407FE0224031800000180024C01B002C
:1037B0000D803240018003801C4027401C80074060
:1037C0000040100060000000000000000000000049
:1037D000000000001F8020404020000040202040CA
:1037E0001F8000000000090006001F80060009007D
:1037F0000000040004003F800400040000000010EA
:10380000006000000000000000000400040004004C
:103810000400040000000000004000000000000060
:103820000000002001C006003800400000001F809A
:103830002040204020401F800000000010403FC07A
:1038400000400000000018C02140224024401840E1
:10385000000010802040244024401B800000020013
:103860000D0011003FC0014000003C802440244076
:103870002440238000001F802440244034400380E3
:1038800000003000200027C03800200000001B800E
:103890002440244024401B8000001C0022C0224001
:1038A00022401F80000000000000084000000000CF
:1038B00000000000000004600000000000000000A4
:1038C00004000A001100208040400900090009009E
:1038D00009000900000000004040208011000A009B
:1038E00004001800200023402400180000001F805E
:1038F0002040274029401F400000004007C03900F9
:103900000F0001C0004020403FC0244024401B80E5
:1039100000001F80204020402040308000002040D8
:103920003FC0204020401F80000020403FC0244076
:103930002E4030C0000020403FC024402E00300008
:1039400000000F0010802040224033800200204001
:103950003FC0040004003FC02040204020403FC042
:103960002040204000000060202020203FC0200098
:10397000200020403FC024400B0030C020402040A9
:103980003FC020400040004000C03FC03C0003C09A
:103990003C003FC0000020403FC00C4023003FC01F
:1039A00020001F802040204020401F800000204039
:1039B0003FC024402400180000001F802140214007
:1039C00020E01FA0000020403FC02440260019C076
:1039D000004018C0244024402240318000003000C4
:1039E00020403FC020403000000020003F800040C9
:1039F00000403F80200020003E0001C0070038004A
:103A00002000380007C03C0007C0380000002040FC
:103A100039C0060039C0204000002000384007C0EF
:103A2000384020000000304021C02640384020C0EF
:103A30000000000000007FE0402040200000000067
:103A400070000C0003800040000000004020402077
:103A50007FE0000000000000200040002000000087
:103A600000000010001000100010001000100000F6
:103A7000000040000000000000000000028005403F
:103A8000054003C0004020003FC0044004400380C4
:103A900000000000038004400440064000000000D5
:103AA0000380044024403FC00040000003800540E4
:103AB000054003400000000004401FC02440244093
:103AC0002000000002E00550055006500420204070
:103AD0003FC00440040003C000400000044027C071
:103AE00000400000000000100010041027E000005B
:103AF000000020403FC00140070004C004402040B7
:103B000020403FC000400040000007C0040007C044
:103B1000040003C00000044007C00440040003C0C8
:103B200000400000038004400440038000000410B3
:103B300007F00450044003800000000003800440AC
:103B4000045007F00010044007C0024004000400C5
:103B50000000000006400540054004C000000000D1
:103B600004001F8004400040000004000780004063
:103B7000044007C000400400070004C001800600A4
:103B80000400060001C0070001C006000000044058
:103B900006C0010006C0044000000410071004E045
:103BA0000180060004000000044005C006400440F7
:103BB00000000000000004007BE040200000000046
:103BC00000000000FFF000000000000040207BE04B
:103BD00004000000000040008000400020002000A1
:103BE0004000000000000000000000000000000095
:103BF00000000000000000001FCC000C00000000CE
:103C00000000000008003000600008003000600084
:103C10000000022003FC1E20022003FC1E200220C4
:103C2000000000000E1811043FFF10840C78000003
:103C300000000F0010840F3800C007781884007847
:103C4000000000780F8410C411240E9800E4008452
:103C5000000808006800700000000000000000007C
:103C6000000000000000000007E0181820044002D7
:103C70000000000040022004181807E000000000C7
:103C800000000240024001800FF00180024002402B
:103C900000000080008000800FF80080008000801D
:103CA00000000001000D000E0000000000000000F8
:103CB0000000000000800080008000800080008004
:103CC00000800000000C000C00000000000000005C
:103CD00000000000000600180060018006001800C7
:103CE0002000000007F0080810041004080807F07E
:103CF00000000000080408041FFC00040004000089
:103D0000000000000E0C10141024104411840E0C3E
:103D1000000000000C1810041104110412880C702B
:103D20000000000000E00320042408241FFC0024FD
:103D3000000000001F9810841104110410881070F6
:103D40000000000007F008881104110418880070B2
:103D5000000000001C00100010FC13001C001000EC
:103D6000000000000E3811441084108411440E38F5
:103D7000000000000700088C10441044088807F079
:103D80000000000000000000030C030C0000000015
:103D9000000000000000000101060000000000001B
:103DA00000000000008001400220041008081004F8
:103DB0000000022002200220022002200220022015
:103DC00000000000100408080410022001400080D8
:103DD000000000000E001200100C106C10800F008C
:103DE000000003E00C1813E4142417C4082807D0BB
:103DF00000000004003C03C41C40074000E4001C19
:103E0000000410041FFC1104110411040E8800703A
:103E1000000003E00C1810041004100410081C101B
:103E2000000010041FFC100410041004080807F020
:103E3000000010041FFC1104110417C4100408181A
:103E4000000010041FFC1104110017C0100008002E
:103E5000000003E00C181004100410441C7800400B
:103E6000000010041FFC10840080008010841FFCE0
:103E700010040000100410041FFC100410040000C3
:103E8000000000030001100110011FFE10001000CF
:103E9000000010041FFC110403801464181C10049B
:103EA000000010041FFC1004000400040004000CB7
:103EB000000010041FFC1F0000FC1F001FFC10046A
:103EC000000010041FFC0C04030000E010181FFC8D
:103ED000100007F00808100410041004080807F088
:103EE000000010041FFC10841080108010800F0050
:103EF000000007F0081810241024101C080A07F20C
:103F0000000010041FFC1104110011C011300E0C30
:103F1000000400000E1C11041084108410441C388E
:103F200000001800100010041FFC100410001800FE
:103F3000000010001FF810040004000410041FF813
:103F4000100010001E0011E0001C007013801C0007
:103F500010001FC0103C00E01F0000E0103C1FC01C
:103F600000001004180C163401C001C01634180CDF
:103F7000100410001C00130400FC13041C001000AB
:103F800000000804101C1064108413041C04101892
:103F900000000000000000007FFE400240024002DE
:103FA0000000000030000C0003800060001C0003D3
:103FB000000000004002400240027FFE00000000BE
:103FC00000000000000020004000400040002000F1
:103FD00000000001000100010001000100010001DA
:103FE0000001000040004000200000000000000030
:103FF000000000000098012401440144014400FC39
:10400000000410001FFC00880104010400880070F7
:104010000000000000700088010401040104008811
:1040200000000000007000880104010411081FFC5A
:104030000004000000F8014401440144014400C8A8
:1040400000000000010401040FFC11041104110020
:104050001800000000D601290129012901C9010623
:10406000000010041FFC008401000100010400FC9A
:10407000000400000104190419FC000400040000FD
:1040800000000000000300010101190119FE0000F9
:10409000000010041FFC0024004001B4010C0104C6
:1040A00000000000100410041FFC000400040000C5
:1040B0000000010401FC0104010001FC01040100F5
:1040C00000FC010401FC008401000100010400FC6B
:1040D0000004000000F8010401040104010400F8D8
:1040E0000000010101FF0085010401040088007047
:1040F000000000000070008801040104010501FFB8
:1041000000010104010401FC00840104010001809C
:104110000000000000CC01240124012401240198A6
:10412000000000000100010007F801040104000084
:104130000000010001F8000400040004010801FC73
:104140000004010001800170000C0010016001807A
:10415000010001F0010C003001C00030010C01F041
:10416000010000000104018C00740170018C010445
:104170000000010101810171000E00180160018041
:10418000010000000184010C013401440184010C90
:104190000000000000000000000001003EFC4002A2
:1041A00040020000000000000000FFFF00000000CF
:1041B00000000000400240023EFC01000000000040
:1041C00000000000600080008000400040002000EF
:1041D00020000000000000000000000000000000BF
:1041E00000000000000000000000000000000000CF
:1041F00000000000000000000000000000000000BF
:1042000000000000000F80380FFE380F80380000DB
:10421000000000000000000000000000000000009E
:104220000100000600000C0000380000310000060C
:1042300000000C000038000030000000000000000A
:10424000000061800067F807F980006180006180EC
:104250000061800061800067F807F98000618000DC
:10426000000000000000000001C0E003E0F00630A4
:10427000080418081FFFFE040E080787F00381E0FA
:1042800000000000000001F000060C000404080615
:104290000C7001F9C0000E00003BE000EC180708AC
:1042A00008040C180003E00000000001E00007F023
:1042B00003F818041C0804170807E1D003C0E00045
:1042C00023B0003C0800200800001000000000009F
:1042D000000100003100003200001C00000000005E
:1042E00000000000000000000000000000000000CE
:1042F00000000000000000000000000000000000BE
:1043000000007F0001FFC00780F00C0018100004BF
:104310002000020000000000002000021000040C39
:1043200000180780F001FFC0007F000000000000BF
:10433000000000000000000000000000000042003B
:10434000006600006600003C0000180003FFC0008B
:104350001800003C000066000066000042000000FB
:104360000000080000080000080000080000080025
:1043700001FFC0000800000800000800000800005D
:1043800008000000000000010000310000320000C1
:104390001C00000000000000000000000000000001
:1043A00000000000000000000000080000080000FD
:1043B00008000008000008000008000008000008CD
:1043C00000000800000800000000000000000000DD
:1043D0000000380000380000380000000000000035
:1043E00000000000000000000000000000000000CD
:1043F0000000000600001C000070000180000E009C
:1044000000380000C0000700001C00003000000061
:104410000000000000007F8001FFE00380700600C4
:104420001804000804000806001803807001FFE06B
:10443000007F800000000000000000000100080173
:10444000000801000803FFF807FFF800000800005B
:104450000800000800000000000000000001C03853
:1044600002C0580400980401180402180404180635
:104470001C1803F81801E0F800000000000000001C
:104480000001C0E003C0F0040008040808040808A4
:1044900006180803F41801E7F00001E0000000002E
:1044A0000000000000000300000D0000110000618A
:1044B0000000810803010807FFF80FFFF80001085A
:1044C0000001080000000000000000E007FCD0062A
:1044D0000808061008061008061008061838060F07
:1044E000F00607C0000000000000000000003F8050
:1044F00001FFE003843002081804100804100804C7
:104500001008071810030FF00007C000000000009B
:104510000000000003C0000700000600000600F8CD
:104520000607F806180006E0000700000600000075
:10453000000000000001E1E003F7F0063410041869
:1045400008041808040C08040C0806161803F3F0F5
:1045500001C1E000000000000000F80003FC30038F
:1045600006380402080402080402080404100308C0
:10457000F001FFC0007F000000000000000000000C
:1045800000000000000000000000703800703800DB
:104590007038000000000000000000000000000073
:1045A0000000000000000000000000000000301AC1
:1045B00000301C00000000000000000000000000AF
:1045C00000000000000000000008000014000022AD
:1045D0000000410000808001004002002004001023
:1045E0000800080000000000000021000021000079
:1045F00021000021000021000021000021000021F5
:104600000000210000210000000000000000000068
:104610000800080400100200200100400080800013
:10462000410000220000140000080000000000000B
:104630000003C00004C000040000080038080F3860
:104640000808380810000C300007E00003C0000024
:104650000000000000003F8000FFE0038070020FB8
:104660001006708804C088048308047F8802C09004
:1046700003012000FE400000080000180001F800BF
:104680003E0801C20007020007E20000FE00001F12
:10469000C80001F800003800000804000807FFF80F
:1046A00007FFF804080804080804080804080806B6
:1046B000180803F41801E7F00001E0000000000012
:1046C00000003F8001FFE003807002001804000832
:1046D0000400080400080400100600200780C00041
:1046E000000004000807FFF807FFF80400080400B2
:1046F0000804000804001802001003807001FFE0A5
:10470000007F8000000004000807FFF807FFF8049E
:104710000808040808040808040808043E080400FF
:104720000806001801006000000004000807FFF8F8
:1047300007FFF8040808040800040800040800043F
:104740003E0006000006000001800000000000009E
:1047500000003F8001FFE00380700600180400089D
:104760000402080402080203F00783F000020000BC
:10477000020004000807FFF807FFF8040808000813
:104780000000080000080000080004080807FFF8FF
:1047900007FFF804000800000000000004000804FF
:1047A000000804000807FFF807FFF80400080400E9
:1047B00008040008000000000000000000000006DF
:1047C00000000700000104000104000104000307C9
:1047D000FFFE07FFFC0400000400000400000400CA
:1047E0000807FFF807FFF8040C08001800003E0057
:1047F00004C7800503C80600F80400380400180048
:10480000000804000807FFF807FFF804000800008C
:104810000800000800000800000800000800001858
:1048200000006000000004000807FFF80780080788
:10483000FC00007FC00003F80007C000780007807C
:104840000807FFF807FFF804000804000807FFF84E
:1048500007000803C00000E000003800001E000050
:1048600007000001C00400F007FFF804000000008A
:1048700000007F8001FFE00380700600180400083C
:1048800004000806001803003001FFE0007F8000EC
:10489000000004000807FFF807FFF80404080404F8
:1048A00000040400040400040400060C0003F800E3
:1048B00001F000000000000000007F8001FFE00325
:1048C00080700600880400880400C806003C0300CD
:1048D0003E01FFE6007F8400000004000807FFF8A7
:1048E00007FFF8040808040800040C00040F000483
:1048F0000BC00610F003F03801E0080000080000CB
:104900000001E0F803F0300630100418080418081D
:10491000040C08040C080206180207F00781E000E6
:1049200000000180000600000400000400000400F4
:104930000807FFF807FFF80400080400000400005F
:1049400006000001800004000007FFE007FFF004FC
:10495000001800000800000800000800000800001F
:104960000804001007FFE004000004000006000037
:1049700007E00007FE00041FE00001F80000380017
:1049800001E0043E0007C00006000004000004002F
:104990000007E00007FFC0041FF80007C007F80089
:1049A00007FF80043FF80007C004F8000700000478
:1049B000000000000004000806001807C07805F198
:1049C000C8003E00001F800463E80780F806001856
:1049D0000400080000000400000600000780000733
:1049E000E008047C08001FF80007F800180804E03D
:1049F0000807000006000004000000000001000895
:104A00000600380400F80403E8040F08047C0805D5
:104A1000F00807C00807001804006000000000004C
:104A2000000000000000000000000000003FFFFE4A
:104A300020000220000220000220000220000200CC
:104A4000000000000000000008000007000000C097
:104A5000000038000006000001C000003000000E19
:104A60000000010000000000000000002000022003
:104A700000022000022000022000023FFFFE000092
:104A80000000000000000000000000000000000026
:104A9000000000080000100000300000200000307E
:104AA00000001000000800000000000000000000EE
:104AB00001000001000001000001000001000001F0
:104AC00000000100000100000100000100000100E1
:104AD0000001000000000000000000200000200095
:104AE00000100000100000000000000000000000A6
:104AF0000000000000000000000000F00019F800B5
:104B00001B18002208002608002408002410003F7B
:104B1000F8001FF800000800001800000004000062
:104B200007FFF80FFFF00018180010080020080019
:104B30002008003018001FF0000FC0000000000027
:104B4000000007C0001FF0001830002008002008F7
:104B5000002008003C08001C10000060000000005D
:104B600000000000000007C0001FF00038180020FF
:104B70000800200800200804101007FFF80FFFF0BD
:104B80000000100000000000000000000007C0004E
:104B90001FF0001230002218002208002208003204
:104BA00008001E10000E2000000000000000200081
:104BB00000200800200801FFF803FFF80620080481
:104BC0002008042008072000030000000000000067
:104BD0000000000E000E6E001FF30031B10020B186
:104BE0000020B1003191001F13002E1E00200E0086
:104BF000300000000004000807FFF80FFFF8001065
:104C000008002000002000002008003FF8001FF8E6
:104C10000000080000000000000000000020080064
:104C20002008002008063FF8063FF80000080000B2
:104C30000800000800000000000000000000000064
:104C400000000300000300200100200100200306F3
:104C50003FFE063FFC0000000000000000000000D6
:104C60000004000807FFF80FFFF8000188000300A8
:104C7000002FC00038F8002038002008000008008D
:104C80000000000000000000040008040008040008
:104C90000807FFF80FFFF8000008000008000008F0
:104CA000000000000000002008003FF8003FF8006E
:104CB0001008002000003FF8003FF8001008002016
:104CC00000003FF8003FF800000800000000200846
:104CD000003FF8003FF8001008001000002000001E
:104CE0002008003FF8001FF8000008000000000046
:104CF000000007C0000FF000183000300800200846
:104D0000002008003008001830000FF00007C00035
:104D10000000000000002001003FFF003FFF0010E6
:104D200011002009002008002008003038001FF082
:104D3000000FC00000000000000007C0001FF000CE
:104D40003818002008002008002009001011001F5A
:104D5000FF003FFF000001000000002008002008C5
:104D6000002008003FF8003FF80008080010080085
:104D7000200800200000300000300000000000008B
:104D800000000000000C78001E1800330800230803
:104D90000021080021880021980030F000386000D0
:104DA000000000000000200000200000200000FFA4
:104DB000F003FFF800200800200800200800003061
:104DC000000000000000000000002000003FF00094
:104DD0007FF8000018000008000008002010003FC5
:104DE000F8007FF00000100000000000000020002C
:104DF000003000003C00003F800023F000007800FD
:104E00000070002380003C000030000020000020E3
:104E100000003C00003FE00023F80000E000270015
:104E2000003E00003FE00021F80001E0003E0000ED
:104E30002000000000002008002008003838003E54
:104E4000680027800003C8002CF8003838002018BC
:104E500000200800000000000000200000300300D7
:104E60003C01003F830023EC000070002380003CE5
:104E700000002000002000000000000000000000F2
:104E80000038080020380020F80023E8002F8800B0
:104E90003E080038080020180000700000000000E4
:104EA00000000000000000000000000000000800FA
:104EB0000014001FF7FC3000062000020000000074
:104EC00000000000000000000000000000000000E2
:104ED00000000000FFFFFF000000000000000000D5
:104EE0000000000000000000000000002000023070
:104EF00000061FF7FC00140000080000000000007E
:104F00000000000000000000000000000018000089
:104F10006000004000004000002000001000000879
:104F200000000400000400000C000010000000005D
:104F30000000000000000000000000000000000071
:104F40000000000000000000000000000000000061
:104F50000000000000000000000000000000000051
:104F60000000000000000000000000000000000041
:104F70000000000000000000000000000000000031
:104F800000000000000007F000C007FFE1E007F0AC
:104F900001E0000000C00000000000000000000070
:104FA0000000000000000000000000000000000001
:104FB0000000000000000020000001C00000078089
:104FC00000001F0000001E0000001C20000001C0A7
:104FD0000000078000001F0000001E0000001C00F1
:104FE00000000000000000000000000000000000C1
:104FF000000000180C0000180C0000180FE0001F43
:10500000FC0003F80C0000180C0000180C0000183D
:105010000C0000180C0000180FE0001FFC0003F843
:105020000C0000180C0000180C000000000000002C
:1050300000000000000000000780007807C000FCAE
:105040000640010E002003070020020380200FFF0E
:10505000FFFC0201C0200200E0600130704001F05E
:105060003F8000F01F00000000000000000000FE74
:10507000000001FF000003018000020080600301C6
:1050800081C001FF070000FE18000000E0000003DF
:10509000BF00000CFFC00071806001C1002003014F
:1050A00080600000FFC000003F0000000000000022
:1050B0001F0000007FC000FCC0C001FF8060030330
:1050C000E0200202782002061E2003FC074001F0C7
:1050D0000380000103C000011C600001E02000010A
:1050E00000200001004000000180000000000000DE
:1050F0000000002000001C6000001C4000001F8019
:1051000000000F0000000000000000000000000090
:10511000000000000000000000000000000000008F
:10512000000000000000000000000000000000007F
:10513000000000000000000000000000000000006F
:10514000000000000000000000000007F800003F21
:10515000FF00007807C001C000E003000030040039
:105160000008080000041000000200000000000019
:105170000000100000020800000404000008030002
:10518000003001C000E0007807C0003FFF000007CA
:10519000F800000000000000000000000000000017
:1051A00000000000000000000000000000000000FF
:1051B000000000000000000C1800000E3800000E77
:1051C000380000063000000360000061438000FFEB
:1051D000FF80006143000003600000063000000E05
:1051E0003800000E3800000C18000000000000001D
:1051F00000000000000000008000000080000000AF
:105200008000000080000000800000008000007F1F
:10521000FF0000008000000080000000800000000F
:1052200080000000800000008000000000000000FE
:10523000000000000001000000E3000000E20000A8
:1052400000FC0000007800000000000000000000EA
:10525000000000000000000000000000000000004E
:10526000000000000000000000000000000000003E
:1052700000000000800000008000000080000000AE
:10528000800000008000000080000000800000001E
:10529000800000008000000080000000800000000E
:1052A000800000008000000080000000000000007E
:1052B000000000000000000000C0000001E000004D
:1052C00001E0000000C0000000000000000000003D
:1052D00000000000000000000000000000000000CE
:1052E00000000000000000000000000000000000BE
:1052F00000000000000C00000038000000E000008A
:10530000038000000E00000038000000E0000003F1
:105310008000000E00000038000000E00000038064
:1053200000000E0000001800000000000000000057
:10533000000000000000000FF800007FFF0000F0F8
:105340000780018000C0030000600200002002000E
:1053500000200200002003000060018000C000E087
:105360000380007FFF00000FF80000000000000035
:10537000000000000000000000000080002000800D
:105380000020008000200080006001FFFFE003FF9C
:10539000FFE000000060000000200000002000008E
:1053A00000200000000000000000000000000000DD
:1053B000000000000000007800E00098016001009B
:1053C0000260020004600200086002001060020037
:1053D000206002004060030080600183006001FEE5
:1053E00000E0007C078000000000000000000000DA
:1053F00000000000000000F0078001F007C001007D
:1054000000400200002002010020020100200201F1
:105410000020030380200186804001FCC0C000788A
:105420007F8000001E00000000000000000000005F
:1054300000000000080000003800000048000001E3
:10544000880000060800000C08100030081000401A
:10545000081001FFFFF003FFFFF003FFFFF0000063
:1054600008100000081000000810000000000000F4
:1054700000000000000000000780001F864003E1DC
:105480000020030200200304002003040020030482
:1054900000200304002003060040030301C00301B1
:1054A000FF8003007E0000000000000000000000FC
:1054B0000000000000000007FC00003FFF0000703B
:1054C000C380008180C0010100600302002002024D
:1054D000002002020020020200200203004001C15D
:1054E00080C000C0FF8000007E00000000000000BF
:1054F00000000000000000F0000003C00000038076
:10550000000003000000030007E003003FE0030188
:10551000C0000306000003180000036000000380C1
:105520000000030000000000000000000000000078
:10553000000000001F0000783F8000FC60C0018E6A
:10554000C0400307802002030020020180200201E6
:1055500080200201C0200301E040018670C000FCF1
:105560003F8000781F0000000000000000000000E5
:105570000000003F000000FF81C001C0C1C0010069
:1055800060200200202002002020020020200200D3
:105590002060020040C00100C18000C18F00007F78
:1055A000FE00001FF00000000000000000000000EE
:1055B00000000000000000000000000000000000EB
:1055C000000000000000000300C0000781E00007A9
:1055D00081E0000300C000000000000000000000A7
:1055E00000000000000000000000000000000000BB
:1055F00000000000000000000000000000000000AB
:1056000000000000000000060066000600780000B0
:10561000000000000000000000000000000000008A
:10562000000000000000000000000000000000007A
:10563000000000000000000080000001C000000326
:10564000600000063000000C180000180C0000304C
:1056500006000060030000C001800100004002005D
:105660000020040000100000000000000000000006
:1056700000000004100000041000000410000004EA
:1056800010000004100000041000000410000004CA
:1056900010000004100000041000000410000004BA
:1056A00010000004100000041000000000000000C2
:1056B00000000000000004000010020000200100B3
:1056C000004000C0018000600300003006000018A8
:1056D0000C00000C18000006300000036000000100
:1056E000C00000008000000000000000000000007A
:1056F0000000000000000078000001F800000238FF
:10570000000002000000040000C0040079E0040072
:1057100081E0040100C0040300000202000003064F
:10572000000001FC000000F8000000000000000084
:105730000000000FF800003FFE000070078000C06E
:1057400000C00101F8400307FC20021E04200230C3
:10575000082002203020023FFC20013F044001804D
:105760000CC000E03180001FC200000000000000FB
:10577000002000000060000003E000003E20000365
:10578000E020003E200003E020000380200007FC12
:105790002000003FE0000003FE2000003FE000008A
:1057A00001E00000002000000020000000000000D8
:1057B0000000020000200200002003FFFFE003FFC2
:1057C000FFE002010020020100200201002002018E
:1057D000002002010020030300200186806001FCFC
:1057E000C0C000F87F8000001F0000000000000023
:1057F00000000007F800003FFF000070078000C0B5
:1058000000C0010000400300002002000020020050
:105810000020020000200200002001000040018062
:1058200000C003C00180003006000000000000003E
:105830000000020000200200002003FFFFE003FF41
:10584000FFE0020000200200002002000020020011
:1058500000200300006001000040018000C000F053
:105860000780007FFE00000FF8000000000000002D
:105870000000020000200200002003FFFFE003FF01
:10588000FFE00201002002010020020100200201CD
:1058900000200201002002038020020FE02003000C
:1058A000006003C000E00060030000000000000092
:1058B0000000020000200200002003FFFFE003FFC1
:1058C000FFE00201002002010020020100000201AD
:1058D0000000020100000201000002038000030F2B
:1058E000E0000300000003C00000006000000000B2
:1058F00000000007F800003FFE000070078001C0B4
:1059000001C001000040030000200200002002004E
:10591000002002000020010020200100204003C0E0
:105920003F8000303F800000200000002000020087
:1059300000200200002003FFFFE003FFFFE0020061
:105940008020020080200000800000008000000015
:105950008000020080200200802003FFFFE003FFA0
:10596000FFE0020000200200002000000000000014
:105970000000000000000000000002000020020003
:105980000020020000200200002003FFFFE003FFD0
:10599000FFE00200002002000020020000200200C0
:1059A00000200000000000000000000000000000D7
:1059B00000000000000E0000000F0000000F0000BB
:1059C00000010200000102000001020000030200C9
:1059D000000603FFFFFC03FFFFF8020000000200C7
:1059E00000000200000002000000000000000000B3
:1059F0000000020000200200002003FFFFE003FF80
:105A0000FFE00200C0200201002000078000000F1C
:105A1000E0000030F80002603E2003800F20030009
:105A200003E0020000E0020000200000002000006F
:105A30000000020000200200002003FFFFE003FF3F
:105A4000FFE0020000200200002000000020000013
:105A500000200000002000000020000000200000C6
:105A60000060000000E000000300000000000200F1
:105A700000200200002003FFFFE003E0002003FFFE
:105A80000020001FF0000001FF8000000FE0000078
:105A90001E000003E000003E002003E0002003FFA2
:105AA000FFE003FFFFE002000020020000200200F0
:105AB00000200200002003FFFFE00380002003F02D
:105AC000002000FC0000001F00000007C0000001D3
:105AD000F00000007C0002001F80020007E003FFCE
